{
  "_format": "hh-sol-artifact-1",
  "contractName": "landManager",
  "sourceName": "contracts/landManager.sol",
  "abi": [
    {
      "inputs": [
        {
          "internalType": "uint256",
          "name": "_xEnd",
          "type": "uint256"
        },
        {
          "internalType": "uint256",
          "name": "_yEnd",
          "type": "uint256"
        }
      ],
      "stateMutability": "nonpayable",
      "type": "constructor"
    },
    {
      "anonymous": false,
      "inputs": [
        {
          "indexed": true,
          "internalType": "address",
          "name": "previousOwner",
          "type": "address"
        },
        {
          "indexed": true,
          "internalType": "address",
          "name": "newOwner",
          "type": "address"
        }
      ],
      "name": "OwnershipPulled",
      "type": "event"
    },
    {
      "anonymous": false,
      "inputs": [
        {
          "indexed": true,
          "internalType": "address",
          "name": "previousOwner",
          "type": "address"
        },
        {
          "indexed": true,
          "internalType": "address",
          "name": "newOwner",
          "type": "address"
        }
      ],
      "name": "OwnershipPushed",
      "type": "event"
    },
    {
      "inputs": [
        {
          "internalType": "address",
          "name": "_address",
          "type": "address"
        },
        {
          "internalType": "uint256",
          "name": "_xStart",
          "type": "uint256"
        },
        {
          "internalType": "uint256",
          "name": "_xEnd",
          "type": "uint256"
        },
        {
          "internalType": "uint256",
          "name": "_yStart",
          "type": "uint256"
        },
        {
          "internalType": "uint256",
          "name": "_yEnd",
          "type": "uint256"
        }
      ],
      "name": "assignLand",
      "outputs": [
        {
          "internalType": "bool",
          "name": "assigned",
          "type": "bool"
        }
      ],
      "stateMutability": "nonpayable",
      "type": "function"
    },
    {
      "inputs": [
        {
          "internalType": "address",
          "name": "_address",
          "type": "address"
        },
        {
          "internalType": "uint256",
          "name": "_x",
          "type": "uint256"
        },
        {
          "internalType": "uint256",
          "name": "_y",
          "type": "uint256"
        }
      ],
      "name": "assignProperty",
      "outputs": [
        {
          "internalType": "bool",
          "name": "",
          "type": "bool"
        }
      ],
      "stateMutability": "nonpayable",
      "type": "function"
    },
    {
      "inputs": [
        {
          "internalType": "address",
          "name": "_address",
          "type": "address"
        },
        {
          "internalType": "uint256",
          "name": "_xStart",
          "type": "uint256"
        },
        {
          "internalType": "uint256",
          "name": "_xEnd",
          "type": "uint256"
        },
        {
          "internalType": "uint256",
          "name": "_yStart",
          "type": "uint256"
        },
        {
          "internalType": "uint256",
          "name": "_yEnd",
          "type": "uint256"
        }
      ],
      "name": "buyingProposalAndUpdateVote",
      "outputs": [],
      "stateMutability": "nonpayable",
      "type": "function"
    },
    {
      "inputs": [],
      "name": "currentExtensionProposalIdInVoting",
      "outputs": [
        {
          "internalType": "uint256",
          "name": "",
          "type": "uint256"
        }
      ],
      "stateMutability": "view",
      "type": "function"
    },
    {
      "inputs": [],
      "name": "currentProposalIdInVoting",
      "outputs": [
        {
          "internalType": "uint256",
          "name": "",
          "type": "uint256"
        }
      ],
      "stateMutability": "view",
      "type": "function"
    },
    {
      "inputs": [
        {
          "internalType": "uint256",
          "name": "_id",
          "type": "uint256"
        }
      ],
      "name": "getExtendProposal",
      "outputs": [
        {
          "internalType": "uint256",
          "name": "",
          "type": "uint256"
        },
        {
          "internalType": "uint256",
          "name": "",
          "type": "uint256"
        },
        {
          "internalType": "uint256",
          "name": "",
          "type": "uint256"
        },
        {
          "internalType": "uint256",
          "name": "",
          "type": "uint256"
        },
        {
          "internalType": "uint256",
          "name": "",
          "type": "uint256"
        },
        {
          "internalType": "address",
          "name": "",
          "type": "address"
        }
      ],
      "stateMutability": "view",
      "type": "function"
    },
    {
      "inputs": [
        {
          "internalType": "uint256",
          "name": "_id",
          "type": "uint256"
        }
      ],
      "name": "getProposal",
      "outputs": [
        {
          "internalType": "uint256",
          "name": "",
          "type": "uint256"
        },
        {
          "internalType": "uint256",
          "name": "",
          "type": "uint256"
        },
        {
          "internalType": "uint256",
          "name": "",
          "type": "uint256"
        },
        {
          "internalType": "uint256",
          "name": "",
          "type": "uint256"
        },
        {
          "internalType": "uint256",
          "name": "",
          "type": "uint256"
        },
        {
          "internalType": "uint256",
          "name": "",
          "type": "uint256"
        },
        {
          "internalType": "uint256",
          "name": "",
          "type": "uint256"
        }
      ],
      "stateMutability": "view",
      "type": "function"
    },
    {
      "inputs": [
        {
          "internalType": "address",
          "name": "_address",
          "type": "address"
        },
        {
          "internalType": "uint256",
          "name": "_proposalId",
          "type": "uint256"
        }
      ],
      "name": "getVote",
      "outputs": [
        {
          "internalType": "bool",
          "name": "",
          "type": "bool"
        }
      ],
      "stateMutability": "view",
      "type": "function"
    },
    {
      "inputs": [
        {
          "internalType": "address",
          "name": "_address",
          "type": "address"
        }
      ],
      "name": "isOwner",
      "outputs": [
        {
          "internalType": "bool",
          "name": "",
          "type": "bool"
        }
      ],
      "stateMutability": "view",
      "type": "function"
    },
    {
      "inputs": [
        {
          "internalType": "uint256",
          "name": "_xStart",
          "type": "uint256"
        },
        {
          "internalType": "uint256",
          "name": "_xEnd",
          "type": "uint256"
        },
        {
          "internalType": "uint256",
          "name": "_yStart",
          "type": "uint256"
        },
        {
          "internalType": "uint256",
          "name": "_yEnd",
          "type": "uint256"
        }
      ],
      "name": "isThisLandOwned",
      "outputs": [
        {
          "internalType": "bool",
          "name": "isItOwned",
          "type": "bool"
        }
      ],
      "stateMutability": "view",
      "type": "function"
    },
    {
      "inputs": [
        {
          "internalType": "uint256",
          "name": "_x",
          "type": "uint256"
        },
        {
          "internalType": "uint256",
          "name": "_y",
          "type": "uint256"
        }
      ],
      "name": "isThisSquareOwned",
      "outputs": [
        {
          "internalType": "bool",
          "name": "isItOwned",
          "type": "bool"
        }
      ],
      "stateMutability": "view",
      "type": "function"
    },
    {
      "inputs": [],
      "name": "landDesigner",
      "outputs": [
        {
          "internalType": "address",
          "name": "",
          "type": "address"
        }
      ],
      "stateMutability": "view",
      "type": "function"
    },
    {
      "inputs": [],
      "name": "lastProposalExtendTime",
      "outputs": [
        {
          "internalType": "uint256",
          "name": "",
          "type": "uint256"
        }
      ],
      "stateMutability": "view",
      "type": "function"
    },
    {
      "inputs": [],
      "name": "lastProposalTime",
      "outputs": [
        {
          "internalType": "uint256",
          "name": "",
          "type": "uint256"
        }
      ],
      "stateMutability": "view",
      "type": "function"
    },
    {
      "inputs": [],
      "name": "manager",
      "outputs": [
        {
          "internalType": "address",
          "name": "",
          "type": "address"
        }
      ],
      "stateMutability": "view",
      "type": "function"
    },
    {
      "inputs": [],
      "name": "proposalExtendId",
      "outputs": [
        {
          "internalType": "uint256",
          "name": "",
          "type": "uint256"
        }
      ],
      "stateMutability": "view",
      "type": "function"
    },
    {
      "inputs": [
        {
          "internalType": "address",
          "name": "_address",
          "type": "address"
        },
        {
          "internalType": "uint256",
          "name": "_xEnd",
          "type": "uint256"
        },
        {
          "internalType": "uint256",
          "name": "_yEnd",
          "type": "uint256"
        }
      ],
      "name": "proposalForExtendingMaplAndUpdateVote",
      "outputs": [],
      "stateMutability": "nonpayable",
      "type": "function"
    },
    {
      "inputs": [],
      "name": "proposalId",
      "outputs": [
        {
          "internalType": "uint256",
          "name": "",
          "type": "uint256"
        }
      ],
      "stateMutability": "view",
      "type": "function"
    },
    {
      "inputs": [
        {
          "internalType": "uint256",
          "name": "",
          "type": "uint256"
        }
      ],
      "name": "proposalsExtendList",
      "outputs": [
        {
          "internalType": "address",
          "name": "",
          "type": "address"
        }
      ],
      "stateMutability": "view",
      "type": "function"
    },
    {
      "inputs": [
        {
          "internalType": "uint256",
          "name": "",
          "type": "uint256"
        }
      ],
      "name": "proposalsList",
      "outputs": [
        {
          "internalType": "address",
          "name": "",
          "type": "address"
        }
      ],
      "stateMutability": "view",
      "type": "function"
    },
    {
      "inputs": [],
      "name": "pullManagement",
      "outputs": [],
      "stateMutability": "nonpayable",
      "type": "function"
    },
    {
      "inputs": [
        {
          "internalType": "address",
          "name": "newOwner_",
          "type": "address"
        }
      ],
      "name": "pushManagement",
      "outputs": [],
      "stateMutability": "nonpayable",
      "type": "function"
    },
    {
      "inputs": [
        {
          "internalType": "uint256",
          "name": "_x",
          "type": "uint256"
        },
        {
          "internalType": "uint256",
          "name": "_y",
          "type": "uint256"
        }
      ],
      "name": "readLand",
      "outputs": [
        {
          "internalType": "address",
          "name": "",
          "type": "address"
        }
      ],
      "stateMutability": "view",
      "type": "function"
    },
    {
      "inputs": [],
      "name": "renounceManagement",
      "outputs": [],
      "stateMutability": "nonpayable",
      "type": "function"
    },
    {
      "inputs": [
        {
          "internalType": "uint256",
          "name": "_timeForVoting",
          "type": "uint256"
        }
      ],
      "name": "setTimeForVoting",
      "outputs": [],
      "stateMutability": "nonpayable",
      "type": "function"
    },
    {
      "inputs": [],
      "name": "timeForVoting",
      "outputs": [
        {
          "internalType": "uint256",
          "name": "",
          "type": "uint256"
        }
      ],
      "stateMutability": "view",
      "type": "function"
    },
    {
      "inputs": [],
      "name": "updateVote",
      "outputs": [],
      "stateMutability": "nonpayable",
      "type": "function"
    },
    {
      "inputs": [
        {
          "internalType": "address",
          "name": "_address",
          "type": "address"
        },
        {
          "internalType": "uint256",
          "name": "_proposalExtendId",
          "type": "uint256"
        },
        {
          "internalType": "bool",
          "name": "_choice",
          "type": "bool"
        }
      ],
      "name": "voteForExtendProposalAndUpdateVote",
      "outputs": [],
      "stateMutability": "nonpayable",
      "type": "function"
    },
    {
      "inputs": [
        {
          "internalType": "address",
          "name": "_address",
          "type": "address"
        },
        {
          "internalType": "uint256",
          "name": "_proposalId",
          "type": "uint256"
        },
        {
          "internalType": "bool",
          "name": "_choice",
          "type": "bool"
        }
      ],
      "name": "voteForProposalAndUpdateVote",
      "outputs": [],
      "stateMutability": "nonpayable",
      "type": "function"
    },
    {
      "inputs": [],
      "name": "xLandLimit",
      "outputs": [
        {
          "internalType": "uint256",
          "name": "",
          "type": "uint256"
        }
      ],
      "stateMutability": "view",
      "type": "function"
    },
    {
      "inputs": [],
      "name": "yLandLimit",
      "outputs": [
        {
          "internalType": "uint256",
          "name": "",
          "type": "uint256"
        }
      ],
      "stateMutability": "view",
      "type": "function"
    }
  ],
  "bytecode": "0x6080604052603c600555600060085560006009556001600a556001600b5534801561002957600080fd5b50604051612b0d380380612b0d8339818101604052604081101561004c57600080fd5b810190808051906020019092919080519060200190929190505050600160008190555033600160006101000a81548173ffffffffffffffffffffffffffffffffffffffff021916908373ffffffffffffffffffffffffffffffffffffffff160217905550600160009054906101000a900473ffffffffffffffffffffffffffffffffffffffff1673ffffffffffffffffffffffffffffffffffffffff16600073ffffffffffffffffffffffffffffffffffffffff167fea8258f2d9ddb679928cf34b78cf645b7feda9acc828e4dd82d014eaae270eba60405160405180910390a3816003819055508060048190555033600c60006101000a81548173ffffffffffffffffffffffffffffffffffffffff021916908373ffffffffffffffffffffffffffffffffffffffff16021790555050506129808061018d6000396000f3fe608060405234801561001057600080fd5b50600436106101e55760003560e01c80634b8918311161010f578063a74dffee116100a2578063d088650a11610071578063d088650a14610862578063d72d50bd14610880578063e5957023146108fb578063e779d2ab14610953576101e5565b8063a74dffee14610728578063b03604ef14610776578063c7f758a8146107d8578063cde8273914610844576101e5565b80635e081c04116100de5780635e081c04146105f65780636b0dd90f1461062457806376ac4ce814610688578063a1122aeb1461070a576101e5565b80634b8918311461054257806355c1130e1461057657806355ed26bf146105ce5780635a96ac0a146105ec576101e5565b8063361141221161018757806346f68ee91161015657806346f68ee914610452578063481c6a751461049657806348c609fa146104ca5780634967b9d0146104e8576101e5565b8063361141221461035a5780633cecde05146103bc578063449269d5146103da578063449fbc52146103f8576101e5565b806326662511116101c3578063266625111461026c5780632dfca445146102c45780632f54bf6e146102e25780632f74914c1461033c576101e5565b8063089208d8146101ea5780630e82e52a146101f457806314544cc6146101fe575b600080fd5b6101f26109bf565b005b6101fc610b43565b005b6102546004803603606081101561021457600080fd5b81019080803573ffffffffffffffffffffffffffffffffffffffff1690602001909291908035906020019092919080359060200190929190505050610d3b565b60405180821515815260200191505060405180910390f35b6102986004803603602081101561028257600080fd5b8101908080359060200190929190505050610f01565b604051808273ffffffffffffffffffffffffffffffffffffffff16815260200191505060405180910390f35b6102cc610f40565b6040518082815260200191505060405180910390f35b610324600480360360208110156102f857600080fd5b81019080803573ffffffffffffffffffffffffffffffffffffffff169060200190929190505050610f46565b60405180821515815260200191505060405180910390f35b610344611010565b6040518082815260200191505060405180910390f35b6103a46004803603608081101561037057600080fd5b8101908080359060200190929190803590602001909291908035906020019092919080359060200190929190505050611016565b60405180821515815260200191505060405180910390f35b6103c46110e4565b6040518082815260200191505060405180910390f35b6103e26110ea565b6040518082815260200191505060405180910390f35b6104506004803603606081101561040e57600080fd5b81019080803573ffffffffffffffffffffffffffffffffffffffff169060200190929190803590602001909291908035151590602001909291905050506110f0565b005b6104946004803603602081101561046857600080fd5b81019080803573ffffffffffffffffffffffffffffffffffffffff169060200190929190505050611108565b005b61049e611311565b604051808273ffffffffffffffffffffffffffffffffffffffff16815260200191505060405180910390f35b6104d261133b565b6040518082815260200191505060405180910390f35b610540600480360360608110156104fe57600080fd5b81019080803573ffffffffffffffffffffffffffffffffffffffff16906020019092919080359060200190929190803515159060200190929190505050611341565b005b61054a611359565b604051808273ffffffffffffffffffffffffffffffffffffffff16815260200191505060405180910390f35b6105cc6004803603606081101561058c57600080fd5b81019080803573ffffffffffffffffffffffffffffffffffffffff169060200190929190803590602001909291908035906020019092919050505061137f565b005b6105d6611397565b6040518082815260200191505060405180910390f35b6105f461139d565b005b6106226004803603602081101561060c57600080fd5b8101908080359060200190929190505050611546565b005b6106706004803603604081101561063a57600080fd5b81019080803573ffffffffffffffffffffffffffffffffffffffff16906020019092919080359060200190929190505050611613565b60405180821515815260200191505060405180910390f35b6106f2600480360360a081101561069e57600080fd5b81019080803573ffffffffffffffffffffffffffffffffffffffff1690602001909291908035906020019092919080359060200190929190803590602001909291908035906020019092919050505061167b565b60405180821515815260200191505060405180910390f35b61071261188a565b6040518082815260200191505060405180910390f35b61075e6004803603604081101561073e57600080fd5b810190808035906020019092919080359060200190929190505050611890565b60405180821515815260200191505060405180910390f35b6107ac6004803603604081101561078c57600080fd5b810190808035906020019092919080359060200190929190505050611920565b604051808273ffffffffffffffffffffffffffffffffffffffff16815260200191505060405180910390f35b610804600480360360208110156107ee57600080fd5b810190808035906020019092919050505061196f565b6040518088815260200187815260200186815260200185815260200184815260200183815260200182815260200197505050505050505060405180910390f35b61084c611a34565b6040518082815260200191505060405180910390f35b61086a611a3a565b6040518082815260200191505060405180910390f35b6108ac6004803603602081101561089657600080fd5b8101908080359060200190929190505050611a40565b604051808781526020018681526020018581526020018481526020018381526020018273ffffffffffffffffffffffffffffffffffffffff168152602001965050505050505060405180910390f35b6109276004803603602081101561091157600080fd5b8101908080359060200190929190505050611b08565b604051808273ffffffffffffffffffffffffffffffffffffffff16815260200191505060405180910390f35b6109bd600480360360a081101561096957600080fd5b81019080803573ffffffffffffffffffffffffffffffffffffffff16906020019092919080359060200190929190803590602001909291908035906020019092919080359060200190929190505050611b47565b005b3373ffffffffffffffffffffffffffffffffffffffff16600160009054906101000a900473ffffffffffffffffffffffffffffffffffffffff1673ffffffffffffffffffffffffffffffffffffffff1614610a82576040517f08c379a00000000000000000000000000000000000000000000000000000000081526004018080602001828103825260208152602001807f4f776e61626c653a2063616c6c6572206973206e6f7420746865206f776e657281525060200191505060405180910390fd5b600073ffffffffffffffffffffffffffffffffffffffff16600160009054906101000a900473ffffffffffffffffffffffffffffffffffffffff1673ffffffffffffffffffffffffffffffffffffffff167fea8258f2d9ddb679928cf34b78cf645b7feda9acc828e4dd82d014eaae270eba60405160405180910390a36000600160006101000a81548173ffffffffffffffffffffffffffffffffffffffff021916908373ffffffffffffffffffffffffffffffffffffffff160217905550565b42600554600d6000600a54815260200190815260200160002060050154011015610c72576000600d6000600a5481526020019081526020016000206007015490506000600d6000600a54815260200190815260200160002060080154905080821115610c5057610c4e600d6000600a54815260200190815260200160002060090160009054906101000a900473ffffffffffffffffffffffffffffffffffffffff16600d6000600a54815260200190815260200160002060010154600d6000600a54815260200190815260200160002060020154600d6000600a54815260200190815260200160002060030154600d6000600a5481526020019081526020016000206004015461167b565b505b600a546008541115610c6f57600a600081548092919060010191905055505b50505b42600554600e6000600b54815260200190815260200160002060030154011015610d39576000600e6000600b5481526020019081526020016000206005015490506000600e6000600b54815260200190815260200160002060060154905080821115610d1757600e6000600b54815260200190815260200160002060010154600381905550600e6000600b548152602001908152602001600020600201546004819055505b600b546009541115610d3657600b600081548092919060010191905055505b50505b565b6000600354831115610db5576040517f08c379a000000000000000000000000000000000000000000000000000000000815260040180806020018281038252601b8152602001807f746865206c616e64206973206e6f7420736f2062696720696e2058000000000081525060200191505060405180910390fd5b600454821115610e2d576040517f08c379a000000000000000000000000000000000000000000000000000000000815260040180806020018281038252601b8152602001807f746865206c616e64206973206e6f7420736f2062696720696e2059000000000081525060200191505060405180910390fd5b60001515610e3b8484611890565b151514610e93576040517f08c379a00000000000000000000000000000000000000000000000000000000081526004018080602001828103825260218152602001806127bc6021913960400191505060405180910390fd5b8360136000858152602001908152602001600020600084815260200190815260200160002060006101000a81548173ffffffffffffffffffffffffffffffffffffffff021916908373ffffffffffffffffffffffffffffffffffffffff160217905550600190509392505050565b60108181548110610f1157600080fd5b906000526020600020016000915054906101000a900473ffffffffffffffffffffffffffffffffffffffff1681565b60085481565b600080600190505b6003548111611005576000600190505b6004548111610ff7578373ffffffffffffffffffffffffffffffffffffffff1660136000848152602001908152602001600020600083815260200190815260200160002060009054906101000a900473ffffffffffffffffffffffffffffffffffffffff1673ffffffffffffffffffffffffffffffffffffffff161415610fea5760019250505061100b565b8080600101915050610f5e565b508080600101915050610f4e565b50600090505b919050565b60055481565b6000808590505b8481116110d65760008490505b8381116110c857600060136000848152602001908152602001600020600083815260200190815260200160002060009054906101000a900473ffffffffffffffffffffffffffffffffffffffff169050600073ffffffffffffffffffffffffffffffffffffffff168173ffffffffffffffffffffffffffffffffffffffff16146110ba57600193505050506110dc565b81806001019250505061102a565b50808060010191505061101d565b50600090505b949350505050565b600b5481565b60075481565b6110f8610b43565b611103838383611b63565b505050565b3373ffffffffffffffffffffffffffffffffffffffff16600160009054906101000a900473ffffffffffffffffffffffffffffffffffffffff1673ffffffffffffffffffffffffffffffffffffffff16146111cb576040517f08c379a00000000000000000000000000000000000000000000000000000000081526004018080602001828103825260208152602001807f4f776e61626c653a2063616c6c6572206973206e6f7420746865206f776e657281525060200191505060405180910390fd5b600073ffffffffffffffffffffffffffffffffffffffff168173ffffffffffffffffffffffffffffffffffffffff161415611251576040517f08c379a00000000000000000000000000000000000000000000000000000000081526004018080602001828103825260268152602001806127966026913960400191505060405180910390fd5b8073ffffffffffffffffffffffffffffffffffffffff16600160009054906101000a900473ffffffffffffffffffffffffffffffffffffffff1673ffffffffffffffffffffffffffffffffffffffff167fea8258f2d9ddb679928cf34b78cf645b7feda9acc828e4dd82d014eaae270eba60405160405180910390a380600260006101000a81548173ffffffffffffffffffffffffffffffffffffffff021916908373ffffffffffffffffffffffffffffffffffffffff16021790555050565b6000600160009054906101000a900473ffffffffffffffffffffffffffffffffffffffff16905090565b60045481565b611349610b43565b611354838383611e24565b505050565b600c60009054906101000a900473ffffffffffffffffffffffffffffffffffffffff1681565b611387610b43565b6113928383836120e5565b505050565b60035481565b600260009054906101000a900473ffffffffffffffffffffffffffffffffffffffff1673ffffffffffffffffffffffffffffffffffffffff163373ffffffffffffffffffffffffffffffffffffffff1614611443576040517f08c379a00000000000000000000000000000000000000000000000000000000081526004018080602001828103825260228152602001806128076022913960400191505060405180910390fd5b600260009054906101000a900473ffffffffffffffffffffffffffffffffffffffff1673ffffffffffffffffffffffffffffffffffffffff16600160009054906101000a900473ffffffffffffffffffffffffffffffffffffffff1673ffffffffffffffffffffffffffffffffffffffff167faa151555690c956fc3ea32f106bb9f119b5237a061eaa8557cff3e51e3792c8d60405160405180910390a3600260009054906101000a900473ffffffffffffffffffffffffffffffffffffffff16600160006101000a81548173ffffffffffffffffffffffffffffffffffffffff021916908373ffffffffffffffffffffffffffffffffffffffff160217905550565b3373ffffffffffffffffffffffffffffffffffffffff16600160009054906101000a900473ffffffffffffffffffffffffffffffffffffffff1673ffffffffffffffffffffffffffffffffffffffff1614611609576040517f08c379a00000000000000000000000000000000000000000000000000000000081526004018080602001828103825260208152602001807f4f776e61626c653a2063616c6c6572206973206e6f7420746865206f776e657281525060200191505060405180910390fd5b8060058190555050565b6000601260008473ffffffffffffffffffffffffffffffffffffffff1673ffffffffffffffffffffffffffffffffffffffff168152602001908152602001600020600083815260200190815260200160002060009054906101000a900460ff16905092915050565b6000848410156116d6576040517f08c379a000000000000000000000000000000000000000000000000000000000815260040180806020018281038252602a8152602001806128c1602a913960400191505060405180910390fd5b8183111561172f576040517f08c379a000000000000000000000000000000000000000000000000000000000815260040180806020018281038252602a8152602001806127dd602a913960400191505060405180910390fd5b600354851115801561174357506003548411155b6117b5576040517f08c379a000000000000000000000000000000000000000000000000000000000815260040180806020018281038252601b8152602001807f746865206c616e64206973206e6f7420736f2062696720696e2058000000000081525060200191505060405180910390fd5b60045483111580156117c957506004548211155b61183b576040517f08c379a000000000000000000000000000000000000000000000000000000000815260040180806020018281038252601b8152602001807f746865206c616e64206973206e6f7420736f2062696720696e2059000000000081525060200191505060405180910390fd5b60008590505b84811161187c5760008490505b83811161186e57611860888383610d3b565b50808060010191505061184e565b508080600101915050611841565b506001905095945050505050565b60095481565b60008060136000858152602001908152602001600020600084815260200190815260200160002060009054906101000a900473ffffffffffffffffffffffffffffffffffffffff169050600073ffffffffffffffffffffffffffffffffffffffff168173ffffffffffffffffffffffffffffffffffffffff161461191857600191505061191a565b505b92915050565b600060136000848152602001908152602001600020600083815260200190815260200160002060009054906101000a900473ffffffffffffffffffffffffffffffffffffffff16905092915050565b6000806000806000806000600d600089815260200190815260200160002060010154600d60008a815260200190815260200160002060020154600d60008b815260200190815260200160002060030154600d60008c815260200190815260200160002060040154600d60008d815260200190815260200160002060050154600d60008e815260200190815260200160002060070154600d60008f8152602001908152602001600020600801549650965096509650965096509650919395979092949650565b600a5481565b60065481565b600080600080600080600e600088815260200190815260200160002060010154600e600089815260200190815260200160002060020154600e60008a815260200190815260200160002060030154600e60008b815260200190815260200160002060050154600e60008c815260200190815260200160002060060154600e60008d815260200190815260200160002060070160009054906101000a900473ffffffffffffffffffffffffffffffffffffffff1695509550955095509550955091939550919395565b600f8181548110611b1857600080fd5b906000526020600020016000915054906101000a900473ffffffffffffffffffffffffffffffffffffffff1681565b611b4f610b43565b611b5c85858585856123b3565b5050505050565b600b548214611bbd576040517f08c379a000000000000000000000000000000000000000000000000000000000815260040180806020018281038252602c815260200180612895602c913960400191505060405180910390fd5b60011515611bca84610f46565b151514611c3f576040517f08c379a00000000000000000000000000000000000000000000000000000000081526004018080602001828103825260198152602001807f546869732061646472657373206973206e6f74206f776e65720000000000000081525060200191505060405180910390fd5b60001515601260008573ffffffffffffffffffffffffffffffffffffffff1673ffffffffffffffffffffffffffffffffffffffff168152602001908152602001600020600084815260200190815260200160002060009054906101000a900460ff16151514611cf9576040517f08c379a000000000000000000000000000000000000000000000000000000000815260040180806020018281038252603081526020018061291b6030913960400191505060405180910390fd5b426005546007540111611d57576040517f08c379a000000000000000000000000000000000000000000000000000000000815260040180806020018281038252602f815260200180612829602f913960400191505060405180910390fd5b600115158115151415611d8f57600e600083815260200190815260200160002060050160008154809291906001019190505550611db6565b600e6000838152602001908152602001600020600601600081548092919060010191905055505b6001601260008573ffffffffffffffffffffffffffffffffffffffff1673ffffffffffffffffffffffffffffffffffffffff168152602001908152602001600020600084815260200190815260200160002060006101000a81548160ff021916908315150217905550505050565b600a548214611e7e576040517f08c379a000000000000000000000000000000000000000000000000000000000815260040180806020018281038252602c815260200180612895602c913960400191505060405180910390fd5b60011515611e8b84610f46565b151514611f00576040517f08c379a00000000000000000000000000000000000000000000000000000000081526004018080602001828103825260198152602001807f546869732061646472657373206973206e6f74206f776e65720000000000000081525060200191505060405180910390fd5b60001515601260008573ffffffffffffffffffffffffffffffffffffffff1673ffffffffffffffffffffffffffffffffffffffff168152602001908152602001600020600084815260200190815260200160002060009054906101000a900460ff16151514611fba576040517f08c379a000000000000000000000000000000000000000000000000000000000815260040180806020018281038252603081526020018061291b6030913960400191505060405180910390fd5b426005546006540111612018576040517f08c379a000000000000000000000000000000000000000000000000000000000815260040180806020018281038252602f815260200180612829602f913960400191505060405180910390fd5b60011515811515141561205057600d600083815260200190815260200160002060070160008154809291906001019190505550612077565b600d6000838152602001908152602001600020600801600081548092919060010191905055505b6001601260008573ffffffffffffffffffffffffffffffffffffffff1673ffffffffffffffffffffffffffffffffffffffff168152602001908152602001600020600084815260200190815260200160002060006101000a81548160ff021916908315150217905550505050565b600354821415806120f857506004548114155b61214d576040517f08c379a00000000000000000000000000000000000000000000000000000000081526004018080602001828103825260308152602001806128eb6030913960400191505060405180910390fd5b600354821015801561216157506004548110155b6121b6576040517f08c379a000000000000000000000000000000000000000000000000000000000815260040180806020018281038252603d815260200180612858603d913960400191505060405180910390fd5b600115156121c384610f46565b151514612238576040517f08c379a00000000000000000000000000000000000000000000000000000000081526004018080602001828103825260198152602001807f546869732061646472657373206973206e6f74206f776e65720000000000000081525060200191505060405180910390fd5b4260078190555060096000815480929190600101919050555060405180610100016040528060095481526020018381526020018281526020014281526020016001815260200160008152602001600081526020018473ffffffffffffffffffffffffffffffffffffffff16815250600e60006009548152602001908152602001600020600082015181600001556020820151816001015560408201518160020155606082015181600301556080820151816004015560a0820151816005015560c0820151816006015560e08201518160070160006101000a81548173ffffffffffffffffffffffffffffffffffffffff021916908373ffffffffffffffffffffffffffffffffffffffff1602179055509050506010839080600181540180825580915050600190039060005260206000200160009091909190916101000a81548173ffffffffffffffffffffffffffffffffffffffff021916908373ffffffffffffffffffffffffffffffffffffffff160217905550505050565b8383101561240c576040517f08c379a000000000000000000000000000000000000000000000000000000000815260040180806020018281038252602a8152602001806128c1602a913960400191505060405180910390fd5b80821115612465576040517f08c379a000000000000000000000000000000000000000000000000000000000815260040180806020018281038252602a8152602001806127dd602a913960400191505060405180910390fd5b600354841115801561247957506003548311155b6124eb576040517f08c379a000000000000000000000000000000000000000000000000000000000815260040180806020018281038252601b8152602001807f746865206c616e64206973206e6f7420736f2062696720696e2058000000000081525060200191505060405180910390fd5b60045482111580156124ff57506004548111155b612571576040517f08c379a000000000000000000000000000000000000000000000000000000000815260040180806020018281038252601b8152602001807f746865206c616e64206973206e6f7420736f2062696720696e2059000000000081525060200191505060405180910390fd5b6000151561258185858585611016565b1515146125f6576040517f08c379a000000000000000000000000000000000000000000000000000000000815260040180806020018281038252601a8152602001807f74686973206c616e6420697320616c7265616479206f776e656400000000000081525060200191505060405180910390fd5b4260068190555060086000815480929190600101919050555060405180610140016040528060085481526020018581526020018481526020018381526020018281526020014281526020016001815260200160008152602001600081526020018673ffffffffffffffffffffffffffffffffffffffff16815250600d60006008548152602001908152602001600020600082015181600001556020820151816001015560408201518160020155606082015181600301556080820151816004015560a0820151816005015560c0820151816006015560e0820151816007015561010082015181600801556101208201518160090160006101000a81548173ffffffffffffffffffffffffffffffffffffffff021916908373ffffffffffffffffffffffffffffffffffffffff160217905550905050600f859080600181540180825580915050600190039060005260206000200160009091909190916101000a81548173ffffffffffffffffffffffffffffffffffffffff021916908373ffffffffffffffffffffffffffffffffffffffff160217905550505050505056fe4f776e61626c653a206e6577206f776e657220697320746865207a65726f206164647265737374686973206c616e642068617320616c7265616479206265656e20626f7567687479456e642073686f756c64206265207375706572696f72206f7220657175616c20746f207953746172744f776e61626c653a206d757374206265206e6577206f776e657220746f2070756c6c5468652074696d6520666f7220766f74696e67206f6e20746869732070726f706f73616c206861732070617373656478456e64206f722079456e642073686f756c64206265207375706572696f72206f7220657175616c20746f2061637475616c206c696d69746174696f6e54686973206973206e6f74207468652070726f706f73616c2063757272656e746c7920696e20766f74696e6778456e642073686f756c64206265207375706572696f72206f7220657175616c20746f20785374617274506c656173652063686f7365206c696d69747320646966666572656e742066726f6d206578697374696e67206f6e65735468697320616464726573732068617320616c726561647920766f74656420666f7220746869732070726f706f73616ca26469706673582212201743790824ee8b0ad39d7a6fb225ad26106158d028f6348185c9bd0bad7531e064736f6c63430007050033",
  "linkReferences": {},
  "deployedLinkReferences": {}
}